S017000053657269616C5F4563686F5F4153462E7372656396
S1130000F8240020E50F0000E10F0000B90F000004
S113001000000000000000000000000000000000DC
S1130020000000000000000000000000E10F0000DC
S11300300000000000000000E10F00002512000095
S1130040E10F0000E10F0000E10F0000E10F0000EC
S1130050E10F0000E10F0000E10F00008D09000036
S11300609D090000AD090000BD090000CD09000094
S1130070DD0900007D0400008D0400009D040000E3
S1130080AD040000BD040000CD040000DD04000048
S1130090ED040000E10F0000E10F0000E10F00009B
S11300A0E10F000008B5064B064803331B1A062B64
S11300B000D808BD044B002BFBD09847F9E7C04695
S11300C0201D0000201D00000000000008B50748A6
S11300D0074B1B1A9B10DA0FD318591000D108BD17
S11300E0044A002AFBD09047F9E7C046201D0000CF
S11300F0201D00000000000010B5074C2378002BE1
S113010009D1FFF7CFFF054B002B02D0044800E0D4
S113011000BF0123237010BD38040020000000003C
S1130120201D000008B5094B002B03D008480949DD
S113013000E000BF08480368002B03D0074B002BE6
S113014000D09847FFF7C2FF08BDC046000000007A
S1130150201D00003C040020201D000000000000C1
S113016038B5151C4C08402384420BD34300081CAB
S1130170191C054B9847013880B24023FF2801D849
S113018028800023181C38BD351200000000000030
S1130190F8B5071C0D1C161C06AA10783A1C42431D
S11301A040248A4240D2002B13D100213A1C224C15
S11301B0A047011C00202A1C0023204CA0471D4DF1
S11301C01B4C221C2B1C121A8B41120C1B041A43AD
S11301D026E00022012B23D14C0FCD0000213A1C34
S11301E00023154FB847021C0B1C281C211C134C60
S11301F0A047C208124B9A420FD901380123104973
S1130200C2088A4205D90133DBB20138082BF7D181
S113021009E04024082B01D106E000235B031A43C4
S11302203280002400E04024201CF8BDC046C046B3
S1130230000000000100000015130000D5120000AA
S1130240FF1F0000C046C04610B582B0041C0F4B0F
S11302501B78002B01D000290DD001A90C700C20B3
S11302600B4B98470C200B4B9847084B5C700122B2
S11302701A70002007E0054B5A781D20141B621EDB
S113028094416442204002B010BDC0465404002092
S1130290AD0E00001D0E0000444B984233D006D82A
S11302A0434B98420DD0434B98421BD06FE0424BD6
S11302B098424AD0414B984258D0414B984266D11B
S11302C032E0012965D0002904D0022906D003298F
S11302D006D001E03B4867E0002065E03A4863E06F
S11302E03A4861E0012956D0002904D0022906D0F9
S11302F0032906D001E0032056E0002054E03448EE
S113030052E0344850E0012947D0002904D00229A2
S113031006D0032906D001E02F4845E0002043E041
S11303202E4841E02E483FE0012938D0002904D06E
S1130330022906D0032906D001E02A4834E000202F
S113034032E0294830E029482EE0012929D000294B
S113035004D0022906D0032906D001E0244823E072
S1130360002021E023481FE023481DE001291AD082
S1130370002904D0022906D0032906D001E01F4831
S113038012E0002010E01E480EE01E480CE00020A1
S11303900AE01D4808E01D4806E01D4804E01D4829
S11303A002E01D4800E01D487047C04600100042AE
S11303B000080042000C004200180042001C0042E9
S11303C000140042030004000300060003000700B9
S11303D003001E0003001F000300080003000A00BE
S11303E003000B00030010000300120003001300BD
S11303F003000C0003000E0003000F0003001600AE
S113040003001800030019000300050003000100A5
S1130410030009000300110003000D00030017008E
S113042038B58000144BC4582368DD682D0C237E36
S11304301D40637E1D40EA0705D5201CA36898472C
S1130440012322689373AB0705D5201CE26890470B
S1130450022322689373EB0605D5201C226990477A
S1130460102322689373AB0605D5201C626990475C
S1130470236820229A7338BD9404002008B5002014
S1130480014B984708BDC0462104000008B501206F
S1130490014B984708BDC0462104000008B502205E
S11304A0014B984708BDC0462104000008B503204D
S11304B0014B984708BDC0462104000008B504203C
S11304C0014B984708BDC0462104000008B505202B
S11304D0014B984708BDC0462104000008B506201A
S11304E0014B984708BDC0462104000008B5072009
S11304F0014B984708BDC04621040000F0B55F4693
S113050056464D464446F0B48DB0051C0C1C161CD2
S11305102960081C794B984721680523CA0700D530
S1130520E3E022681C23970700D5DEE0744B196AC8
S1130530821C012797403A1C0A431A620BA9737F55
S11305400B700D30C7B2381C6E4B9847381C6E4B7D
S11305509847707F00216D4B9847F37A6B71337D18
S1130560AB71737DEB712F680397381C634B98470D
S11305700D3000226B46DA8231688946F268924671
S1130580B37D98467368002B13D0802252059342A2
S11305902BD1F37D002B01D02A682AE03769C0B241
S11305A05B4B9847011C381C6A461632594B9847D6
S11305B01CE0F37D002B09D0102300933069B1694E
S11305C06A4616320023544FB8470FE031698B4610
S11305D0C0B24F4B9847011C1023009358466A46FB
S11305E0163200234C4FB84700E00020031E7CD194
S11305F0D2E713691804FCD46B4616331B88039F97
S11306007B815146484601437268114347467B0744
S11306101943F37D002B01D104231943307D400499
S1130620737D1B041843F27AB37A13431843338956
S1130630FF2B03D08022520411431843337F002B35
S113064003D1364B1B689A0301D5802319432A68CA
S113065013691F04FCD4039F78602A681369180483
S1130660FCD4039F39600AAB80221A7000225A70AE
S113067001219970DA70306A0690716A0791B26A42
S11306800892F66A099600271E1CF9B2BB0006AA56
S11306909858002802D1201C214B9847411C05D0B2
S11306A03070000CC0B2311C1E4A90470137042F31
S11306B0EBD10023AB60EB602B61AB616B6100227B
S11306C0EB83AB832023EA542123EA542223EA5404
S11306D02323EA542868094B9847041C1249134BF6
S11306E09847A400124BE5500023181C0DB03CBCE5
S11306F090469946A246AB46F0BDC046E9080000C4
S113070000040040AD0E00001D0E00004902000070
S1130710C90E0000610100009101000000200041A9
S113072099020000890F0000AD07000025090000B0
S1130730B4040020931C9B001950012393401A1CFD
S11307402023C15C0A43C2547047C04610B5172326
S1130750002A11D0C469240C0523002C0CD1C479BF
S11307601C23002C08D00368C28381610521232245
S1130770815401225A730023181C10BD10B517238D
S1130780002A11D084791C23002C0DD0C469A4B292
S11307900523002C08D103688283416105212222AC
S11307A0815404225A730023181C10BDF8B580002C
S11307B04B4BC5582C6823691904FCD4E668360CE5
S11307C0E3681B041B0E1E402123EB5C2022AA5C61
S11307D0171C1F40F20720D5EB691B0C1BD0AB691B
S11307E01A78D2B2591CA9616979012904D15978BE
S11307F009020A430233AB61D305DB0D2383EB69A2
S11308001B0C013B9BB2EB83002B06D1012323730A
S11308100223637301E001232373B30709D5022381
S1130820237300222323EA54F90702D5281CAA685B
S11308309047730752D5EB699BB2002B4CD02369C8
S1130840DBB2590725D09A0708D51A222223EA5485
S1130850226992B202231343238214E0590708D574
S11308601E222223EA54226992B2042313432382D0
S113087009E0DA0707D513222223EA54226992B247
S11308800123134323827B0728D52B69281C98470F
S113089024E0A269D205D20DD3B269690B706B69E9
S11308A0591C69616979012904D1120A5A706B696A
S11308B001336B61EB699BB2013B9BB2AB83002BB1
S11308C00CD10423237300222223EA54BA0705D54A
S11308D0EB68281C984701E004232373F8BDC04645
S11308E0B40400207047C04670B586B00C4A6B460D
S11308F070CA70C332CA32C3009E864206D0012336
S11309009A0069465258824203D100E00023D8B2CB
S113091003E00133062BF3D1002006B070BDC046BE
S11309207C1C0000F0B50A4B1B78002B0CD1094F3E
S1130930094E0A4D0024DE515A1914600433182B51
S1130940F9D10122024B1A708000024BC150F0BD54
S1130950580400205C040020E5080000B4040020D2
S113096010B582B0041C6846054918310622054BAF
S11309709847201C044B98476B46185602B010BD8C
S11309807C1C0000B51B0000E908000008B5024B00
S11309901B680020984708BD5C04002008B5024B82
S11309A05B680120984708BD5C04002008B5024B31
S11309B09B680220984708BD5C04002008B5024BE0
S11309C0DB680320984708BD5C04002008B5024B8F
S11309D01B690420984708BD5C04002008B5024B3D
S11309E05B690520984708BD5C0400200C4B1B681C
S11309F0002B10D1EFF31083002B09D172B6BFF393
S1130A005F8F0022074B1A700122074B1A7002E015
S1130A100022054B1A70024B1A6801321A607047A3
S1130A20740400200000002078040020084B1A6899
S1130A30013A1A601B68002B09D1064B1B78002B66
S1130A4005D00122044B1A70BFF35F8F62B6704762
S1130A50740400207804002000000020F0B583B066
S1130A6001AC012565700027A77025700E20211C9C
S1130A70064EB0478022D201054B9A6127706570FB
S1130A800F20211CB04703B0F0BDC046950A0000FA
S1130A900044004100B583B001AB80221A700A788B
S1130AA05A704A789A708A78DA70191C014B984700
S1130AB003B000BD890F000008B507282BD88000BB
S1130AC0174B1B589F468020000227E0154BD8681F
S1130AD024E0154B186A8005800F144BC340181C82
S1130AE01CE0104B186919E00E4B1B6802201840DB
S1130AF014D00D491022CB681A42FCD0094B1B6854
S1130B005A070AD500200A4B9847064B9B681B04DA
S1130B101B0C584302E0002000E0064808BDC04614
S1130B209C1C00007C0400200008004000127A0095
S1130B30C90E0000006CDC0270B50C4B1C6A017815
S1130B40857840780122104080014026B443044354
S1130B502A40D00180229443221C024303200140F6
S1130B600902034802400A431A6270BD00080040AB
S1130B70FFFCFFFF07283DD880001F4B1B589F46F2
S1130B80002038E01D4B196A02220A431A62002031
S1130B9031E01A4B996902220A439A6100202AE043
S1130BA0164B1A6992B202210A431A82002022E0EB
S1130BB0124B5A6992B202210A439A8200201AE027
S1130BC00F4B196802220A431A601A680D4B1A4027
S1130BD00A4B9A84191C1022CB681A42FCD0084A8A
S1130BE09168064BD96251689962126892B29A84EC
S1130BF0002000E017207047BC1C000000080040E3
S1130C007C0400207FFF000030B585B0144A154BEA
S1130C109A60154B5A681E218A435A6003A800241F
S1130C204470012585700470104B98470620104BC2
S1130C309847104B9847104B1C725C729C7201953C
S1130C406A46547006231370147254720020694665
S1130C500A4B984700200A4B984705B030BDC04660
S1130C60103600000008004000400041390B00002D
S1130C70750B0000850C000000040040A90C000066
S1130C80590D0000064B996908220A439A61012212
S1130C90044B1A70191C0B681342FCD17047C046F0
S1130CA000040040000C0040F8B5061C071C0D7839
S1130CB02D0205434B78002B02D08023DB021D4319
S1130CC04B7A002B02D080231B031D434C68012C5C
S1130CD017D9631E1C420FD1022C06D9022300220D
S1130CE001325B009C42FBD800E00022170237432C
S1130CF080235B031D4304E02702374380239B02C8
S1130D001D430B7A002B02D080239B031D430E4A04
S1130D1013681904FCD40D4B98470D4B1E700A49F7
S1130D200B681A04FCD4084B9F601A1C136819043E
S1130D30FCD4054B5968802252020A4015435D6079
S1130D40044B9847F8BDC046000C0040ED09000074
S1130D50080C00402D0A000010B5041C0A4A136850
S1130D601904FCD4094B9847094B1C70064A1368B4
S1130D701904FCD4044B5968802252020A435A6075
S1130D80044B984710BDC046000C0040ED0900001C
S1130D90040C00402D0A000070B5041C184A1368A6
S1130DA01904FCD4174B9847174B1C70144A13684A
S1130DB01904FCD4124E7068C004C00E134B98473B
S1130DC0051C114B1C707668F602F60F104B1C7054
S1130DD00B4A13681904FCD4094B9C682402240CA4
S1130DE00C4B9847002E07D1012C07D9281C211C35
S1130DF0094B9847051C01E00134E540281C70BDEF
S1130E00000C0040ED090000040C0040B90A000089
S1130E10080C00402D0A00003512000010B5041C17
S1130E20064B9847064B1C70064B1968090C802228
S1130E30D2010A435A80044B984710BDED090000C3
S1130E40020C0040000C00402D0A000010B5041CE8
S1130E50104B9847104B1C70104B18680001000F82
S1130E6059880F4A0A405A801A68120C0D490A40E0
S1130E705A80191C8022D2010B681B0C1342FBD12F
S1130E80064B01025888064A02400A435A80064B20
S1130E90984710BDED090000020C0040000C004012
S1130EA0FFF0FFFFFFBFFFFF2D0A000010B50C7815
S1130EB024020443024B9847A4B2024B5C8010BD49
S1130EC04D0E0000000C004010B5041C064B984762
S1130ED0064B1C70064B1C682401240F054B9847D5
S1130EE0201C054B984710BDED090000020C004082
S1130EF0000C00402D0A0000990D000030B5D47894
S1130F000023002C1ED11378802B04D01B068024D0
S1130F106402234300E0002354780225AC430AD141
S1130F209478002C03D18024A402234302E0C0243B
S1130F30E402234341605478013CE4B2012C01D81B
S1130F40104C23400D042D0CA024E4052C431C4319
S1130F5084620D0CD02424062C431C438462D47870
S1130F60002C0DD15C0305D59378012B01D181614F
S1130F7000E041615378013BDBB2012B00D8816072
S1130F8030BDC046FFFFFBFF08B5031C0A1CC109A6
S1130F900020002903D15809C001044940181F2129
S1130FA00B4001219940024B984708BD0044004181
S1130FB0FD0E00007047C046FEE7C04608B5044B6E
S1130FC09847044B9847044B9847044B984708BDEF
S1130FD0090C00005D0A0000B50F0000B50F000009
S1130FE0FEE7C04610B5194B194A9A4203D0194B73
S1130FF0164A9A4204D3184B184A9A4210D31BE05B
S1131000174B14480330C01A8008013080000023B5
S11310100E490F4AD458CC5004338342FAD1EAE73C
S11310200E4B1A1D0C490331891A8908890052187C
S1131030002102C39342FCD10A4B7F210A4A8A430E
S11310409A600A4B98470A4B9847FEE70000002035
S1131050201D000038040020F8040020380400207B
S11310600400002000ED00E000000000691B000007
S1131070A91100008022D201014BDA617047C046F9
S11310800044004108B5034803490522034B98472F
S113109008BDC046CC040020F00400204D07000029
S11310A000B583B0084B196A802212010A431A6200
S11310B001A900230B701420044B98471420044BFF
S11310C0984703B000BDC04600040040AD0E0000C8
S11310D01D0E000070B58CB08023DB050093002347
S11310E00193FF2269460A818B72CB7201220A7531
S11310F04A758B75CB7506930B774B77E1235B02AF
S11311000493C4239B03039301235B420893099331
S1131110114B0A93114B0B93114E124D124C301C70
S1131120291C6A46A0470028F9D10D4D2C68201CC3
S11311300E4B98471F23184001238340181C0C4B67
S113114018602A6813691904FCD422680223134323
S113115023600CB070BDC0460200180002001900E4
S1131160CC04002000140042FD04000061090000CA
S113117000E100E038B5084C201C08490022084D65
S1131180A847201C07490122A8472123E15C032228
S11311900A43E25438BDC046CC0400207510000058
S11311A0350700008510000070B584B0124B9847D5
S11311B0124B9847124B9847124B9847124B98473B
S11311C00122124B1A70BFF35F8F62B66946104B4F
S11311D06A4631CB31C2188810809B7893700D48D1
S11311E00F220D4B98470B4E0C4D0D4C301C291CF7
S11311F00522A047FAE7C046BD0F0000090C000015
S1131200A1100000D510000075110000000000209E
S1131210DC1C0000CC0400204D070000F00400207A
S11312207D070000024B1A6801321A607047C046FD
S113123090040020002934D00123002210B48842F5
S11312402CD301242407A14204D2814202D20901F1
S11312501B01F8E7E400A14204D2814202D2490012
S11312605B00F8E7884201D3401A1A434C08A042B5
S113127002D3001B5C0822438C08A04202D3001B4B
S11312809C082243CC08A04202D3001BDC08224362
S1131290002803D01B0901D00909E3E7101C10BC86
S11312A07047002801D00020C04307B4024802A1BF
S11312B04018029003BDC046190000000029F0D078
S11312C003B5FFF7B9FF0EBC4243891A1847C0465D
S11312D07047C046002B11D1002A0FD1002900D13C
S11312E0002802D00021C943081C07B4024802A107
S11312F04018029003BDC046D9FFFFFF03B46846FF
S113130001B5029800F044F8019B9E4602B00CBC63
S11313107047C0469C460304F0B51B0C17043F0CF1
S1131320150C1E1C041C000C7E436B4347434543B1
S1131330FB18300C1818874202D980235B02ED1881
S1131340030CED1863465C434A433604360CA1187B
S1131350000480194919F0BDF0B583B0161C1F1C98
S11313600090019100F02EF8041C0D1C221C2B1C73
S1131370301C391CFFF7CEFF009A019B121A8B41D7
S11313800899201C0A604B60291C03B0F0BDC046BC
S1131390F0B583B0141C1D1C0090019100F0EAF913
S11313A0221C2B1C061C0F1CFFF7B4FF009A019B88
S11313B0121A8B410899301C0A604B60391C03B027
S11313C0F0BDC046F0B544465F4656464D46F0B4BF
S11313D01C1C85B0002900DAD9E00F1C0021061C72
S11313E08A46101C191C002C00DAC7E001960090F4
S11313F089468046002950D1B84262D900F07AFB70
S1131400002809D020234546311C1B1A85408740FB
S1131410D940A8460F4386404246140C13041B0CC3
S1131420211C381C9B46FFF705FF5B464343051C04
S1131430211C381C9946FFF741FF330C080418435C
S1131440814509D940446B1E804500D977E1814527
S113145000D874E1023D40444946411A8946081CBB
S1131460211CFFF7E7FE5A464243071C211C48464D
S11314709346FFF723FF36040904360C0E43B345A5
S113148007D946447B1EB04502D8023FB34500D875
S11314901F1C2D042F43002403E0B94260D900240B
S11314A000275246381C211C002A03D03B1C002173
S11314B05842A14105B03CBC90469946A246AB4671
S11314C0F0BD002804D101200021FFF7B3FE8046BF
S11314D0404600F00FFB002860D1414644460B040F
S11314E03C1B1B0CA3460D0C00930124291C5846DD
S11314F0FFF7A0FE009F81464743291C5846FFF78B
S1131500DDFE330C090419438F4208D94B4641448C
S1131510013B884502D88F4200D925E19946C91B71
S11315208B46081C291CFFF785FE009B291C43439E
S1131530071C58460093FFF7C1FE3604009D0904BA
S1131540360C0E43B54207D946447B1EB04502D83B
S1131550023FB54200D81F1C49460B041F43A0E7B5
S1131560081C00F0C7FA041E70D1B94503D3009CCF
S1131570019DAC4293D80024012792E75246D243FE
S1131580031C0C1C924600215842A1412EE700275F
S113159046428F41012149428A4622E720231B1AF1
S11315A04246351C82403C1CDD40DC4087402B1CFD
S11315B0150C3B43291C8640201C009317049046BD
S11315C0FFF738FE3F0C011C794381468B46201CF3
S11315D0291CFFF773FE009C0904230C19438B4557
S11315E00CD94B464144013B884500D9BAE08B45B0
S11315F000D8B7E002225242914441445C460C1B9D
S1131600201C291C0194FFF715FE391C4143041CBE
S11316108B460198291CFFF751FE009A0904130414
S11316201B0C19438B4509D94144631E884500D9D5
S113163094E08B4500D891E0023C41445B46CB1AD0
S113164049469B460B041C4300974FE7009D20230B
S11316501B1A4A4600998240DD40154381403A1CDA
S1131660DA400091311C9046D9403A1C82400B1C50
S1131670134301932F0C2B041B0C391C404602937B
S1131680FFF7D8FD029A81464243391C40469346EF
S1131690FFF714FE019A0904130C19438B450AD968
S11316A04B464919013B8D425AD88B4558D90223E0
S11316B05B42994449195A468A1A101C391C0392F0
S11316C0FFF7B8FD029B80464343391C03989B46B1
S11316D0FFF7F4FD019A090413041B0C19438B450D
S11316E00AD943464919013B8D4235D88B4533D934
S11316F002235B42984449195D464D1BAB4649465B
S1131700009D0F04424617432A04120C3B042D0C7F
S11317101B0C380C111C594342436B436843D318C8
S11317200D0C5B198C469A4202D980225202801811
S11317301D0C401983450CD303D00024B1E61D1CB5
S11317408AE665462A041B04120C9B18A6409E4296
S1131750F3D2013F0024A4E69846CDE71C1C6DE7B4
S11317609946A8E7994649E70222524291444144E6
S1131770D5E6C046F0B55F4656464D464446F0B4FD
S11317800D1C85B0061C9246984602900191039266
S11317901F1C141C8346A946002B52D1AA426BD9A4
S11317A0101C00F0A7F900280AD020231B1A311CB2
S11317B0D94085400B1C2B43864084409946B34650
S11317C0250C23041B0C291C48469846FFF732FDC0
S11317D04646071C4643291C4846FFF76FFD5A46F8
S11317E00904130C19438E4209D909197B1E8C4232
S11317F000D959E18E4200D856E1023F0919891BEC
S11318008946081C291CFFF715FD43464343061C63
S1131810291C48469846FFF751FD5A46130409040B
S11318201B0C1943884508D90919731E8C4200D929
S113183038E1023E884500D834E1380430430027BB
S113184012E0019A93420DD8181C00F053F9041EBB
S113185066D1019B9F4200D221E1039F02998F42EE
S113186000D81CE100270020391C05B03CBC904680
S11318709946A246AB46F0BD002A04D101200021BE
S1131880FFF7D8FC041C201C00F034F9002800D019
S1131890B6E023042D1B1B0CA946260C98460127F1
S11318A0311C4846FFF7C6FC41464143051C8A46A5
S11318B04846311CFFF702FD5A460804130C18432E
S11318C0824507D900196B1E844202D8824500D98B
S11318D00DE11D1C5346C31A181C311C9A46FFF710
S11318E0A9FC41464143814688465046311CFFF7D6
S11318F0E5FC5A46130409041B0C194388450BD90B
S11319004B460919013B8C4200D9CFE0884500D8E9
S1131910CCE002235B429944280449460843A3E7E8
S113192020231B1A424657468240DF401743524643
S113193082400192321CDA40291CD9408540131C94
S11319402B4302933D0C3B041B0C8846081C291CAA
S11319509A46FFF76FFC534643438146291C404691
S11319609B46FFF7ABFC029A0904130C19438B4501
S113197006D94B46C919013B8F4200D8ABE09946C2
S11319805A468A1A101C291C9346FFF753FC5346E7
S11319904343291C804658469A46FFF78FFC029A17
S11319A0090415042D0C29438A4506D94346C9194F
S11319B0013B8F4200D886E098465746CF1BBA4673
S11319C04946019F0804424610433D042D0C03047C
S11319D03F0C1B0C020C291C594355437B437A438F
S11319E0EB180F0CDB198C469D4202D980277F022D
S11319F0D2191D0C5219924562D359D0002733E7EE
S1131A0020231B1A311C2F1CD940DF4085400B1C9E
S1131A1084402B4386400193B3462304260C1B0CBD
S1131A20381C311C9846FFF705FC42464243051C0E
S1131A30311C381C9146FFF741FC019F09043B0C03
S1131A401943894507D909196B1E8C424DD889451C
S1131A504BD9023D09194A468A1A101C311C924678
S1131A60FFF7E8FB43464343071C311C50469946A5
S1131A70FFF724FC019A090413041B0C194389453C
S1131A8007D909197B1E8C422DD889452BD9023FD1
S1131A9009194B46CB1A2D0499462F4300E700271A
S1131AA00120E1E61E1CC8E61F1CA8E6994633E7A0
S1131AB061460A041B04120C9B18A6409E429DD248
S1131AC001380027D0E68A4500D875E702235B4237
S1131AD09844C91971E78B4500D850E702235B424B
S1131AE09944C9194CE71F1CD3E71D1CB3E7023DF9
S1131AF00019EFE61C2101231B04984201D3000CBA
S1131B0010391B0A984201D3000A08391B0998426C
S1131B1001D30009043902A2105C40187047C04682
S1131B2004030202010101010000000000000000A2
S1131B3008B5011C0020021C031C00F045F808BD78
S1131B4038B5074B074C1D1CE41AA410002C04D014
S1131B50013CA300EB589847F8E700F0D5F838BDEE
S1131B60141D0000181D000070B50E4B0E4D00240E
S1131B70ED1AAD101E1CAC4204D0A300F3589847D4
S1131B800134F8E700F0B6F8084B094D0024ED1ACB
S1131B90AD101E1CAC4204D0A300F3589847013486
S1131BA0F8E770BD001D0000001D0000001D0000CE
S1131BB0081D000010B50023934203D0CC5CC4542C
S1131BC00133F9E710BD0000F7B51E1C234B051CBB
S1131BD01B6801911C1CFC34E06C171C002803D109
S1131BE0A62252009818E06443681F2B16DD1C4B94
S1131BF0002B02D1012040422EE0C820400000E02A
S1131C0000BF0028F6D0E26C00230260C422520018
S1131C104360E0648350C622520083504368002D21
S1131C2013D09C000419221C88321760C2277F003D
S1131C30C2195768012199400F43FC345760E6608C
S1131C40022D02D19468214391605A1C019F0233F2
S1131C509B0042601F500020FEBDC046EC1C0000EB
S1131C600000000008B5034B002B02D00248FFF728
S1131C705FFF08BD00000000411B00000008004297
S1131C80000C004200100042001400420018004200
S1131C90001C00420708090A0B0C0000CC0A0000D3
S1131CA0160B0000160B0000C60A0000C60A00004E
S1131CB0E20A0000D20A0000E80A0000A00B0000BB
S1131CC0F40B0000F40B0000800B0000920B0000EA
S1131CD0B00B0000840B0000C00B000048656C6C66
S1131CE06F20576F726C64210D0A000010000020F1
S1131CF043000000F8B5C046F8BC08BC9E467047D7
S1131D00651C000025010000F8B5C046F8BC08BCFD
S10B1D109E467047F900000033
S10B1D18ACF6FF7F010000009E
S1131D20010000000000000010000020000000007E
S1131D3000000000FC02002064030020CC0300200B
S1131D40000000000000000000000000000000008F
S1131D50000000000000000000000000000000007F
S1131D6000000000F01C0000000000000000000063
S1131D70000000000000000000000000000000005F
S1131D80000000000000000000000000000000004F
S1131D90000000000000000000000000000000003F
S1131DA0000000000000000000000000000000002F
S1131DB0000000000000000000000000000000001F
S1131DC0000000000000000000000000000000000F
S1131DD000000000000000000100000000000000FE
S1131DE00E33CDAB34126DE6ECDE05000B000000C3
S1131DF000000000000000000000000000000000DF
S1131E0000000000000000000000000000000000CE
S1131E1000000000000000000000000000000000BE
S1131E2000000000000000000000000000000000AE
S9030FE508
